:020000040800F2
:10000000480400200101000809140008850C0008BC
:1000100005140008310900088918000800000000D4
:10002000000000000000000000000000C9150008EA
:100030006D0B00080000000091140008B5160008C0
:100040001B0100081B0100081B0100081B01000820
:100050001B0100081B0100081B0100081B01000810
:100060001B0100081B0100081B0100081B01000800
:100070001B0100081B0100081B0100081B010008F0
:100080001B0100081B0100081B0100081B010008E0
:100090001B0100081B0100081B0100081B010008D0
:1000A0001B0100081B0100081B0100081B010008C0
:1000B0001B0100081B0100081B0100081B010008B0
:1000C0001B0100081B0100081B0100081B010008A0
:1000D0001B0100081B0100081B0100081B01000890
:1000E0001B0100081B0100081B010008DFF80CD0F1
:1000F00000F0FCFB00480047C11D00084804002038
:100100000648804706480047FEE7FEE7FEE7FEE7B1
:10011000FEE7FEE7FEE7FEE7FEE7FEE7B9160008AA
:10012000ED000008F0B480EA0102D40F4200B2EB07
:10013000410F02D20246084611464A0042D0C30D82
:10014000DDB2C1F3C752AD1A202D35DAC1F3160165
:1001500041F4000204B15242C5F1200602FA06F150
:100160002A411044B3EBD05F23D0C4B1012DA0EBE2
:10017000C35009DCF0BC4FF0004202EAC352DBB2CC
:1001800000F5000000F0BEBA400000F1807000EB06
:10019000C350A0F1807040EAD170490009E04908DD
:1001A00041EAC071A0EBC35000F50000400800EB2D
:1001B000C350F0BC00F09DBA6142012202EB410144
:1001C000001BF6E7F0BC704781F00041AAE780F021
:1001D0000040A7E780EA010210B502F000434000AA
:1001E00022D04A001FD0010E01EB1261C0F356006D
:1001F000C2F3560240F4000042F40002A0FB0220C9
:1002000000047F39140400D0401C50EA124001D48D
:100210004000491EC2B20C0604EBD010401C40083E
:10022000802A02D003E0002010BD20F00100002948
:1002300000DA0020184310BD30B480EA010202F059
:10024000004530F0004221F0004013D090B1C30DC2
:10025000D40DC2F31601C0F31600E41A41F40001F4
:1002600040F400027D34914201D3641C00E0490057
:10027000002C02DA30BC002070474FF4000000234D
:10028000914201D3891A034340084FEA4101F7D153
:1002900051B1914202D14FF0004105E002D24FF03E
:1002A000010101E06FF0010103EBC450284430BCB0
:1002B00000F01FBA2DE9FE4F804681EA0300C00F0F
:1002C0000C46009021F0004123F00045B8EB0200FD
:1002D000A94105D24046214690461C460B4602469F
:1002E00023F00040104347D0270DC7F30A00C3F3A3
:1002F0000A510290401A019040286BDAC3F31300B0
:1003000040F4801B0098924620B10023D2EB030AF0
:1003100063EB0B0B01985946C0F14002504600F0C8
:10032000C7F906460D4650465946019A00F0CFF9E6
:1003300010EB08006141002487EA115284EAE77358
:100340001A4340D0009A62B3019A012A4FEA075239
:1003500015DC001B61EB02014FF0004202EA07527C
:10036000CDE90042001C41F5801132462B4600F0D9
:1003700006FA03B0BDE8F08F40462146F9E7001BBE
:1003800061EB0201001C41F5801300185B4120184D
:10039000A2F5001747EB030140EAD570B6196D418D
:1003A00011E06D084FEA360645EAC0754FEA07527C
:1003B000001B61EB0201001C41F5801149084FEA66
:1003C00030000019514132462B4603B0BDE8F04FD2
:1003D00000F0C6B90098012240000023D0EB0202D1
:1003E00063EBE073009821464FEAE074B8EB00003D
:1003F00061EB0401E9E783F000435BE781F0004132
:1004000058E72DE9FE4F81EA030404F0004421F08F
:10041000004100944FF0000B23F0004350EA010428
:100420005ED052EA03045BD0C3F30A54C1F30A5509
:100430002C44A4F2F3340194A0FB0254C1F3130141
:1004400041F48011C3F3130343F4801301FB02440E
:1004500000FB034E840A970A44EA815447EA835713
:10046000A4FB076802958D0A05FB07854FEA932CCC
:1004700004FB0C542705029D4FEA065847EA16373D
:10048000B5EB08056EEB070C870E920E47EA811755
:1004900042EA8312A7FB0201B6EB0B0164EB0004F6
:1004A0002B0D43EA0C335E1844EB1C50DA465146E0
:1004B000E7FB0201C5F313044FEA0B3343EA14537D
:1004C0004FEA0432019C43EA0603A4F10C040294AF
:1004D000009CCDE900B400F052F903B0BDE8F08F04
:1004E00000200146F9E72DE9F04D81EA030404F00C
:1004F000004B21F0004514464FF0000A23F0004164
:1005000050EA050220D054EA01021DD0C5F30A5773
:100510000246C5F31303C1F31300C1F30A5640F4B6
:10052000801543F48013A7EB0608101BD64608F28B
:10053000FD3873EB050002D308F1010801E09218C1
:100540005B41B8F1000F03DA00200146BDE8F08DF1
:1005500000204FF48011064684460EE0171B73EB13
:10056000050705D3121B63EB050306434CEA010C98
:1005700049084FEA300092185B4150EA0107EDD17B
:1005800052EA030012D082EA040083EA050108431C
:1005900005D0101BAB4106D20122002306E0002249
:1005A0004FF0004302E06FF0010253101AEB060017
:1005B0004CEB085110EB0A0041EB0B01BDE8F04D8C
:1005C00000F0CEB8C10F80EAE0700844CA07962355
:1005D000002100F097B896230022114600F092B84F
:1005E00000F0004220F00040C10DC0F3160040F4BE
:1005F00000007F2901DA00207047962903DCC1F151
:100600009601C84001E096398840002AF4D0404263
:10061000704700F0004230F000400AD0C10D01F5F3
:100620006071C0F3160042EA0151C208400711434D
:10063000704700200146704701F0004330B421F0BC
:10064000004150EA010206D00A0DA2F56072C1F322
:100650001301002A02DC30BC00207047440F44EA3A
:10066000C104C100E01830BC00EBC25000F041B83A
:10067000002801DBC0F10040002901DBC1F100418D
:100680008842704730B50B460146002020220124E5
:1006900009E021FA02F59D4205D303FA02F5491B50
:1006A00004FA02F52844151EA2F10102F1DC30BD66
:1006B000202A04DB203A00FA02F100207047914022
:1006C000C2F1200320FA03F3194390407047202A17
:1006D00006DBCB17203A41FA02F043EAE07306E06A
:1006E00041FA02F3D040C2F120029140084319467A
:1006F00070470029A8BF7047401C490008BF20F080
:100700000100704710B4B0FA80FC00FA0CF050EA17
:10071000010404BF10BC704749B1CCF1200421FA98
:1007200004F411FA0CF118BF012121430843A3EB93
:100730000C01CB1D4FEA00614FEA102042BF0020A0
:1007400010BC704700EBC35010440029A4BF10BC7C
:100750007047401C490008BF20F0010010BC7047E2
:1007600010B5141E73F1000408DA401C41F10001B9
:1007700092185B411A4301D120F0010010BD2DE910
:10078000F04D92469B4611B1B1FA81F202E0B0FA07
:1007900080F220329046FFF78BFF04460F4640EA76
:1007A0000A0041EA0B0153465A46084313D011464A
:1007B00053EA010019D0C8F14002504600F0A8F8F1
:1007C00005460E46504659464246FFF771FF08431C
:1007D00005D0012004E020463946BDE8F08D002018
:1007E000054346EAE0762C4337430A986305E40A5A
:1007F000A0EB08000022FD0A44EA47540A3002D563
:1008000000200146E9E7010510196941DDE90845C5
:1008100000196941BDE8F04DA2E770B521F0004331
:1008200003430CD0C1F30A550024D5EB040564EB57
:100830000403D617AD1AB34102DB0020014670BD98
:10084000201841EB025170BD2DE9F04D00231A46EE
:100850001B1A8A4103DB00200146BDE8F08DC1F37D
:100860000A52C1F3130141F480154FF0000BD10778
:1008700002D100186D41521E0027044640F2FF11BC
:10088000384601EB620A3E468046024600204FF49D
:10089000801100F03DF8C2197141BB1846EB010010
:1008A000B4EB030C75EB000C04D3E41A65EB000504
:1008B00017460E46241908F101006D418046342880
:1008C000E3DDF91946EB0600091BA84103D24FF0FE
:1008D000FF32134601E0002213461BEB070046EBF4
:1008E0000A51BDE8F04DFFF73BBF0000064C074D35
:1008F00006E0E06840F0010394E8070098471034F0
:10090000AC42F6D3FFF7F6FBD01F0008F01F00083B
:10091000202A04DB203A21FA02F00021704721FA54
:1009200002F3D040C2F120029140084319467047BB
:1009300000BFFEE72DE9F04F8FB004460D460020C2
:100940000E900B9082460A90002608E054F826008C
:100950008049FFF771FC44F82600701CC6B2032ED4
:10096000F4DBA1680846FFF735FC0590616808468E
:10097000FFF730FC039021680846FFF72BFC02903C
:100980000399FFF7CFFB04900599FFF7CBFB834654
:10099000FFF73FFECDE9060101F0CAFACDE90801F3
:1009A000FFF74AFE804641466068FFF745FC0D9020
:1009B0000D990846FFF70EFC8346FFF72AFE00223A
:1009C000654BCDE90401FFF719FDCDE9060101F002
:1009D000AFFACDE90801FFF72FFE814641462068B6
:1009E000FFF72AFC0C900C990846FFF7F3FB8346AF
:1009F000FFF70FFE0022584BCDE90401FFF7FEFC84
:100A0000CDE9060101F094FACDE90801FFF714FEE3
:100A10000B90A8680C99FFF7DDFB834628680B99BB
:100A2000FFF7D8FB59460990FFF77CFB0746A868FB
:100A30000D99FFF7CFFB08900B99FFF7CBFB83468F
:100A400049466868FFF7C6FB089028680D99FFF7CC
:100A5000C1FB06900C99FFF7BDFB07900899FFF7C3
:100A600061FB59460990FFF7AFFB8246514650465D
:100A7000FFF7B0FB394601903846FFF7ABFB00901B
:100A80000199FFF74FFB8346FFF7C3FDCDE9020154
:100A900001F04EFACDE906013846FFF7BAFDCDE97F
:100AA0000401DDE90623FFF71EFDCDE90801FFF78C
:100AB000C3FD0A9000215046FFF7DAFD19D20A98CB
:100AC000FFF7A7FDCDE9020101F00EF80022234B4C
:100AD000CDE90401FFF795FC4FF0C042204BCDE972
:100AE0000601FFF700FDCDE90801FFF7A5FD0E9017
:100AF0001CE00A98FFF78DFDCDE9020100F0F4FF3C
:100B00000022164BCDE90401FFF77BFC4FF0C042F9
:100B1000134BCDE90601FFF7E6FCCDE90801FFF72D
:100B20008BFD83460F49FFF752FB0E900E490E983E
:100B3000FFF7F8FA0E900B490E98FFF799FD04D2D3
:100B400008490E98FFF740FB0E900E980FB0BDE8D5
:100B5000F08F00000000C8420000F03F00806640B7
:100B6000FB2109400000B4430000204270472DE9FA
:100B7000F041024600250026002000230024002723
:100B800091F803C00CF00F0591F803C00CF0100CA5
:100B9000BCF1000F03D091F802C04CEA050591F8B2
:100BA00000C0BCF1000F31D0146800202BE04FF0E2
:100BB000010C0CFA00F3B1F800C00CEA03069E42E7
:100BC00020D183004FF00F0C0CFA03F7BC4305FA59
:100BD00003FC4CEA040491F803C0BCF1280F06D1D1
:100BE0004FF0010C0CFA00FCC2F814C00AE091F8B6
:100BF00003C0BCF1480F05D14FF0010C0CFA00FC0A
:100C0000C2F810C0401C0828D1D31460B1F800C04D
:100C1000BCF1FF0F34DD546800202EE000F1080C19
:100C20004FF0010808FA0CF3B1F800C00CEA030613
:100C30009E4221D183004FF00F0C0CFA03F7BC4306
:100C400005FA03FC4CEA040491F803C0BCF1280F38
:100C500005D100F1080C08FA0CF8C2F8148091F8DC
:100C600003C0BCF1480F07D100F1080C4FF0010898
:100C700008FA0CF8C2F81080401C0828CED3546043
:100C8000BDE8F08100BFFEE721B1028842F4806236
:100C9000028004E002884FF6FF331A40028070475A
:100CA00038B504460D4600BF0121204600F0A4F8E7
:100CB0001421204600F0C4F9009000222946204665
:100CC00000F0CDF91421204600F0BAF900F002003E
:100CD0000028E9D00449204600F01DF801212046F3
:100CE00000F096F838BD00000004001070B5024610
:100CF0000024002500230020958A138B1B0445EA5D
:100D0000030626F07F4404EA01068E4201D1012049
:100D100000E0002070BD002221F07F42D343838297
:100D2000704721B1028842F00102028004E002888B
:100D30004FF6FE731A4002807047000000B585B080
:100D40000121480500F0A6FB0121092000F0C2FBAB
:100D5000C020ADF8000003208DF802001C208DF8A3
:100D6000030069461348FFF702FF134800F028F814
:100D70000020ADF808004BF6FF70ADF80A003020F7
:100D8000ADF80C004FF48060ADF80E000001ADF836
:100D900010000A48019001210748FFF7C2FF01A98E
:100DA000054800F05FF801210348FFF76DFF05B02B
:100DB00000BD0000000C014000540040A08601006E
:100DC00010B504460B48844209D10121480500F0C2
:100DD00071FB00214FF4001000F06CFB08E00121D2
:100DE000880500F067FB00214FF4800000F062FBF3
:100DF00010BD00000054004021B1028842F480720E
:100E0000028004E002884FF6FF631A4002807047B8
:100E100021B1028842F40072028004E002884FF699
:100E2000FF531A40028070470CB502460020002391
:100E30000193009300920B0F019321F07F41019BDE
:100E40001BB1009B1433009303E0090C009B183383
:100E50000093009B1B680B400BB1012000E00020B9
:100E60000CBD00002DE9F04385B004460D46002678
:100E7000B1460427DFF8CC80A6884FF6C070064044
:100E8000684600F037FBDDF808802F48B8FBF0F02B
:100E90001FFA80F946EA0906A68020884FF6FE71FF
:100EA0000840208000262949286888420CD82868F4
:100EB0004000B8FBF0F087B2042F00DA04273E436D
:100EC00009F10100208427E0E8884BF6FF71884291
:100ED00006D1286800EB4000B8FBF0F087B209E0CB
:100EE000286800EBC00101EB0010B8FBF0F087B2FE
:100EF00047F48047C7F30B0008B947F0010747F4F0
:100F0000004006434FF4967009FB00F04FF47A71ED
:100F100090FBF1F0401C2084A683208840F0010063
:100F2000208026884FF6F5300640A8886989084356
:100F300006432680A88929890843208105B0BDE899
:100F4000F083000000127A0040420F00A0860100EA
:100F50002DE9F0410746884616461D46069C14B901
:100F60000120BDE8F08100BF4FF400313846FFF7A3
:100F70005BFF0028F8D101213846FFF785FE0121EB
:100F80003846FFF739FF00BF2B493846FFF7AEFE62
:100F90000028F9D000224146384600F060F800BF32
:100FA00026493846FFF7A2FE0028F9D031463846D8
:100FB00000F05EF800BF2149891C3846FFF796FE15
:100FC0000028F8D001213846FFF716FF00BF1A4964
:100FD0003846FFF78BFE0028F9D0012241463846FB
:100FE00000F03DF800BF1449491C3846FFF77EFE6B
:100FF0000028F8D018E0012C07D100213846FFF76F
:1010000043FE01213846FFF703FF00BF0A493F3185
:101010003846FFF76BFE0028F8D0384600F01BF882
:1010200028706D1C601E84B2002CE4D1012138466A
:10103000FFF72AFE002094E701000300820007006A
:1010400008B50246002000900092009808440090E5
:101050000098008808BD0146088AC0B2704712B1E6
:1010600041F0010102E04FF6FE7319400182704722
:10107000018270472DE9F04106460F4614461D4691
:1010800001213046FFF7B8FE00BF1C493046FFF78C
:101090002DFE0028F9D0002239463046FFF7DFFF49
:1010A00000BF17493046FFF721FE0028F9D021463E
:1010B0003046FFF7DDFF00BF1149891C3046FFF7BE
:1010C00015FE0028F8D029463046FFF7D1FF00BFB3
:1010D0000B49891C3046FFF709FE0028F8D0012192
:1010E0003046FFF795FE39463046FFF7D9FD4FF4FD
:1010F0007A7000F007F80020BDE8F08101000300DD
:101100008200070000BF011EA0F1010290B2FAD1D7
:10111000704700002DE9FE4305464FF07E5706203C
:10112000564BA822322100905548FFF711FF0220AC
:10113000544BA322322100905148FFF709FF514838
:10114000407800F0400008B1402400E010244D48F1
:10115000007800F0400020B14A48407800F040009C
:1011600018B30020484908701AE04748007840004A
:10117000401C4249085C44490978404A12F8111061
:1011800001EB002006B296FBF4F001B201A83E4A42
:10119000127820F812103C480078401C3A49087038
:1011A000394800780328E0DB22E000203649087047
:1011B0001AE035480078314911F81000000201B2F8
:1011C000314800784000401C2C4A105C084490FBD9
:1011D000F4F000B201A92C4A127821F812002A4832
:1011E0000078401C28490870274800780328E0DB75
:1011F0000220244B2322322100902148FFF7A8FE31
:101200002048407800F0400010B14FF07A5717E0C6
:101210001C48007800F0300030B1102807D020289A
:1012200008D030280BD108E04FF07E5707E04FF090
:10123000804704E04FF0814701E0144F00BF00BF3A
:1012400000201149087013E001A90F4A127831F902
:101250001200FFF7B7F980463946FEF7BBFF0A498F
:10126000097845F8210008480078401C06490870B4
:10127000054800780328E7DBBDE8FE830A0000206C
:1012800000540040100000201200002000004041E7
:101290002DE9FC4704460026002700250620464B82
:1012A00003223C2100904548FFF752FE012001AB8C
:1012B00002463C2100904148FFF74AFE9DF8040099
:1012C00000F0E00080281DD006DC20280BD040284C
:1012D0000ED0602828D110E0A02818D0C0281BD03C
:1012E000E02821D11DE040F24C464FF475771BE019
:1012F00040F257364FF43E7716E040F29E264FF408
:10130000167711E04FF4E1764FF4C8770CE04FF414
:10131000C87640F2631707E04FF4A57640F227172E
:1013200002E0E626CD2700BF00BF234840782249CF
:10133000097800EB012085B23046FFF74CF9814671
:1013400028B2FFF73FF982461D49FEF743FF80466A
:101350004946FEF771FF20601748C0781649897822
:1013600000EB012085B23846FFF735F9814628B2F7
:10137000FFF728F982461249FEF72CFF80464946BE
:10138000FEF75AFFA0600C4840790B49097900EB41
:10139000012085B23046FFF71EF9814628B2FFF7DB
:1013A00011F982460649FEF715FF80464946FEF7C9
:1013B00043FF6060BDE8FC8704000020005400404B
:1013C00000007A4410B53723202232210448FFF769
:1013D00051FE0023232232210148FFF74BFE10BDAE
:1013E0000054004010B5A02301223C210448FFF71F
:1013F00041FE002302223C210148FFF73BFE10BDC5
:101400000054004000BFFEE77047000070B50021A7
:1014100000230F22C47804B3154C246804F4E0645C
:10142000C4F5E064210AC1F10403CA40447804FA17
:1014300003F184781440214309010E4C0678A1552C
:10144000047804F01F050124AC4005786D11AD004F
:1014500005F1E025C5F8004109E0047804F01F0516
:101460000124AC40044D0678761145F8264070BD45
:101470000CED00E000E400E080E100E002490143FF
:10148000024A1160704700000000FA050CED00E010
:101490007047000029B1064AD2690243044BDA6161
:1014A00004E0034AD2698243014BDA6170470000CD
:1014B0000010024029B1064A12690243044B1A6126
:1014C00004E0034A12698243014B1A61704700002D
:1014D0000010024029B1064A92690243044B9A6106
:1014E00004E0034A92698243014B9A61704700000D
:1014F0000010024030B500210022002400232D4DB1
:101500006D6805F00C0121B1042905D0082923D10B
:1015100005E0294D056022E0274D05601FE0254DBF
:101520006D6805F47012234D6D6805F48034022552
:1015300005EB92421CB9214D554305600BE01D4D52
:101540006D6805F400351DB11C4D5543056002E082
:10155000194D5543056002E0174D056000BF00BFFF
:10156000144D6D6805F0F0010909154D6B5C0568B7
:10157000DD4045600F4D6D6805F4E061090A104DCE
:101580006B5C4568DD4085600A4D6D6805F460510F
:10159000C90A0B4D6B5C4568DD40C560054D6D6843
:1015A00005F44041890B074D6B5CC568B5FBF3F54D
:1015B000056130BD0010024000127A0000093D00B4
:1015C0001300002023000020704710B500F002F83F
:1015D00010BD00000CB50020019000903348006859
:1015E00040F480303149086000BF3048006800F4A2
:1015F000003000900198401C0190009818B90198A3
:10160000B0F5A06FF1D12948006800F4003010B1A6
:101610000120009001E0002000900098012843D1B3
:101620002348006840F0100021490860084600681F
:1016300020F0030008600846006840F002000860DF
:101640001A4840681949486008464068486008469A
:10165000406840F4806048600846406820F47C1090
:1016600048600846406840F4E81048600846006852
:1016700040F08070086000BF0C48006800F0007007
:101680000028F9D00948406820F003000749486065
:101690000846406840F00200486000BF03484068C8
:1016A00000F00C000828F9D10CBD00000010024029
:1016B000002002407047000010B51348006840F059
:1016C00001001149086008464068104908400E4969
:1016D0004860084600680E4908400B490860084603
:1016E000006820F4802008600846406820F4FE006E
:1016F00048604FF41F008860FFF767FF4FF00060FD
:101700000449086010BD0000001002400000FFF80E
:10171000FFFFF6FE08ED00E001F40072B2F5007F75
:1017200000D100BFCA430280704721B1828942F4D0
:101730000052828104E082894DF6FF731A40828153
:10174000704702460020B1F5007F00D100BF13882A
:101750000B400BB1012000E000207047F0B50346BC
:10176000002400260025002040F66A17B94200D167
:1017700000BF1846C1F3421401F01F06012707FA03
:1017800006F5012C01D10C3004E0022C01D11030FF
:1017900000E014301AB107682F43076002E00768C1
:1017A000AF430760F0BD00002DE9F04786B0054665
:1017B0000E460024A24600BFA1460027B08900B112
:1017C00000BF2F462C8A4CF6FF700440F08804437B
:1017D0002C82AC894EF6F3100440B088318908435E
:1017E000718908430443AC81AC8A4FF6FF40044042
:1017F000B0890443AC8201A8FFF77CFE1F488742F2
:1018000002D1DDF810A001E0DDF80CA0A88900F4F9
:10181000004040B10AEBCA0000EB0A1031684900F1
:10182000B0FBF1F807E00AEBCA0000EB0A103168E0
:101830008900B0FBF1F86420B8FBF0F00401200946
:10184000642101FB1089A88900F4004040B13220D6
:1018500000EBC900B0FBF1F000F00700044308E022
:10186000322000EB09106421B0FBF1F000F00F0012
:1018700004432C8106B0BDE8F08700000038014029
:10188000C1F308028280704700BFFEE70FB4054B2A
:1018900010B503A9044A029800F07CF810BC5DF86A
:1018A00014FB00009D1D0008280000202DE9F041D8
:1018B0004F1E00EBC7010446D1E9000115461E4644
:1018C00037F006020DD02A463346FEF79AFD7F1EFA
:1018D00004EBC703D3E90023FEF7ECFC37F0060264
:1018E000F1D1022F25D0042F13D0062F18BFBDE849
:1018F000F0812A463346FEF784FDD4E90A23FEF739
:10190000D9FC2A463346FEF77CFDD4E90823FEF7CE
:10191000D1FC2A463346FEF774FDD4E90623FEF7D0
:10192000C9FC2A463346FEF76CFDD4E90423FEF7D2
:10193000C1FC2A463346FEF764FDD4E90223FEF7D4
:10194000B9FC2A463346FEF75CFDD4E90023BDE826
:10195000F041FEF7AFBC0122FEF75FBF0022134645
:1019600010461146FEF7BFBD02E008C8121F08C1AD
:10197000002AFAD170477047002001E001C1121F10
:10198000002AFBD170470000014908607047000041
:101990002C0000202DE9FF4F89B09B46044600250E
:1019A00006E025280BD05A460B999047641C6D1C05
:1019B00020780028F5D10DB02846BDE8F08F00272B
:1019C000B8460122474900E0074314F8013F203B95
:1019D00002FA03F00842F7D120782E2819D114F822
:1019E000010F47F004072A280ED06FF02F0220784D
:1019F000A0F1300109290CD808EB880102EB410164
:101A000000EB0108641CF2E70A98641C50F8048B90
:101A10000A9020780028CED0642808D0692806D003
:101A200075281ED05A460B9990476D1C58E00A99AC
:101A30004FF00A0901C90A91002802DA40422D211B
:101A400002E0390504D52B218DF82010012103E097
:101A5000F90704D02021F7E78A4608AE0DE00021FF
:101A6000FAE70A994FF00A0901C90A91F7E74946CE
:101A7000FEF708FE303106F8011D0028F7D1ADEB66
:101A8000060000F12009780701D44FF00108C8458D
:101A900002DDA8EB090000E000208046002706E0F8
:101AA00008A85A46C05D0B9990476D1C7F1C57458E
:101AB000F6DB04E030205A460B9990476D1CB8F1D4
:101AC0000001A8F10108F5DC05E016F8010B5A4603
:101AD0000B9990476D1CB9F10001A9F10109F4DCE3
:101AE000641C65E7092801002DE9F04D0546DFF883
:101AF000388221F000408D4F82B00C46404520DBFB
:101B0000A0EB080129430BD08949884201DC10D1A0
:101B10007DB102B028462146BDE8F04DFFF71BBF5E
:101B2000002CC7BF002001468248394602B0BDE8FC
:101B3000F08D0120FFF728FF02B0BDE8F04DFFF760
:101B40000DBF7D49884244DA7C498142A1BF794872
:101B50007B4902B0BDE8F08D2A462346104619465F
:101B6000FEF74FFC8346024676480E460B4606219A
:101B70007844FFF79BFE5A463346FEF742FC074681
:101B800071488A465A46334604217844FFF78EFE50
:101B90005A463346FEF735FC00224346FEF78AFBE1
:101BA00002460B4638465146FEF79DFC2A46234620
:101BB000FEF727FC654A664BFEF720FC2A462346C3
:101BC000FEF71CFC02B05B4ABDE8F04D5C4BFEF733
:101BD00015BC002C4FF000024BDA4646434628461F
:101BE0002146FEF767FB4FF0FF32FEF716FE044674
:101BF000024658480D460B4606217844FFF756FE2C
:101C000022462B46FEF7FDFB804653488A46224675
:101C10002B4604217844FFF749FE22462B46FEF767
:101C2000F0FB00223346FEF745FB06468B46204676
:101C3000294600F07DF904460D4632465B46404693
:101C40005146FEF750FC22462B46FEF7DAFB3F4A90
:101C50003F4BFEF7D0FB22462B46FEF72BFB012223
:101C6000FEF7DBFD02B03B46BDE8F04D314AFEF722
:101C7000C5BB2D4B28462146FEF7C0FB4FF0FF3277
:101C8000FEF7CBFD05460E4600F052F900270C4644
:101C900080463A460B46FEF70DFB82468B463A4697
:101CA000234610461946FEF7ACFB2A463346FEF79C
:101CB000A5FB52465B46FEF716FC824627488B463C
:101CC0002A46334606217844FFF7F0FD2A4633467C
:101CD000FEF797FBCDE9000121482A46334604214F
:101CE0007844FFF7E3FD2A463346FEF78AFB0022DD
:101CF0000D4BFEF7DFFA02460B46DDE90001FEF769
:101D0000F2FB42462346FEF77CFB52465B46FEF75B
:101D1000D1FA3A462346FEF7CDFA02B00122BDE8D9
:101D2000F04DFEF77ABD00000000F03FFB210940B6
:101D30000000F07F182D44540000E03F0000603C9C
:101D4000FB21F93F0C04000022040000075C14335F
:101D500026A6913C8203000098030000B602000012
:101D6000CC020000014642F228324A434FF0E02301
:101D70005A6101221A6100229A6100BF4FF0E022ED
:101D8000106900F001021AB100F48032002AF5D087
:101D900000224FF0E0231A619A61704770B5044643
:101DA0000D46E1B20548FFF76BFD00BF80210348F7
:101DB000FFF7C7FC0028F9D0204670BD003801406D
:101DC00000F05CF8FEF7BAFF11A0FFF75FFDFFF728
:101DD000F9FAFFF707FB15A0FFF758FD17E02248B7
:101DE000FFF756FA2148FFF795F91F491F48FEF7FC
:101DF000A1FD1F49086008460068FEF7F1FB044694
:101E000021461CA0FFF742FD0A20FFF7ABFFE6E7E3
:101E10000D0A2A2A2A2A2A2A2A2A2A2A2A2A2A2A5F
:101E20002A2A2A2A2A2A2A2A0D0A00000D0A2A2AE0
:101E30002A2A2A2A2A2A2020202020202020204C3A
:101E4000534D333033444C48432020202020202061
:101E50002A2A2A2A2A2A2A2A2A2A2A2A2A2A2A2AE2
:101E60002A2A2A2A2A0D0A003C00002030000020DD
:101E700000000020402564230000000000B587B06A
:101E8000012144F20500FFF725FB4FF40070ADF887
:101E9000180003208DF81A0018208DF81B0006A9E1
:101EA0002148FEF764FE4FF48060ADF8180004206E
:101EB0008DF81B0006A91C48FEF759FE4FF4C060C0
:101EC000FFF7DCFA25208DF8140000208DF81500AE
:101ED00001208DF816008DF8170005A8FFF796FA77
:101EE0004FF4165001900020ADF80800ADF80A003C
:101EF000ADF80C00ADF810000C20ADF80E0001A9F3
:101F00000A48FFF751FC01210848FFF70EFC0122A7
:101F100040F225510548FFF721FC40210348FFF717
:101F2000FBFB07B000BD0000000801400038014085
:101F30002DE9F04106460F46FEF786FC041E0D46CD
:101F400018BF0120284320F00040C0F17F6000F15D
:101F5000E040C00F0ED0301C18BF0120384320F0E5
:101F60000040C0F17F6000F1E040C00F04BF0120DD
:101F7000FFF70AFD20462946BDE8F0810000000079
:101F8000555555555555C53F7D6FEB0312D6D4BFFA
:101F90005544880E55C1C93F3B8F68B52882A4BF00
:101FA00088B20175E0EF493F09F7FD0DE13D023FC1
:101FB0004B2D8A1C273A03C0C88A599CE52A004049
:101FC00059018D1B6C06E6BF82922EB1C5B8B33F96
:101FD000F01F000800000020300000006819000811
:101FE00020200008300000201804000078190008A4
:101FF00000000000000000000000000000000000E1
:1020000000000000000000010203040102030406B6
:102010000708090204060800000000000000000094
:04000005080000ED02
:00000001FF
